:100000000C942A000C94E8000C94BE000C94470059
:100010000C9447000C9447000C9497000C944700F4
:100020000C9447000C9476000C9447000C94470005
:100030000C9447000C9447000C9447000C94470024
:100040000C9447000C9447000C9447000C94470014
:100050000C94470011241FBECFE5D4E0DEBFCDBF16
:1000600010E0A0E6B0E0E2E3F2E002C005900D92FD
:10007000A436B107D9F720E0A4E6B0E001C01D9294
:10008000A536B207E1F70E9410010C9417010C94F9
:1000900000008FEF87BB18BA1ABA8BB383608BBB93
:1000A000089583B7856083BF89B7816089BF12BE19
:1000B0007894089589B3837051F49FE088E10FB676
:1000C000F894A89581BD0FBE91BD0E94510008957E
:1000D0008EB58B608EBD1DBC1CBC87EA91E69BBDB6
:1000E0008ABD89B7806189BF789408951F920F9265
:1000F0000FB60F9211248F93EF93FF93E09164005A
:10010000F0E0E05AFF4F808188BB8091640083302B
:1001100019F41092640003C08F5F80936400FF9114
:10012000EF918F910F900FBE0F901F9018951F9217
:100130000F920FB60F9211242F933F934F935F931B
:100140006F937F938F939F93AF93BF93EF93FF939F
:100150000E9451008EB5887F8EBDFF91EF91BF91B7
:10016000AF919F918F917F916F915F914F913F914F
:100170002F910F900FBE0F901F9018951F920F9206
:100180000FB60F9211242F933F934F935F936F936A
:100190007F938F939F93AF93BF93EF93FF93C999EF
:1001A00003C00E94680003C0C89B0E945100FF91D9
:1001B000EF91BF91AF919F918F917F916F915F91DF
:1001C0004F913F912F910F900FBE0F901F90189558
:1001D0001F920F920FB60F9211248F939F93C8997D
:1001E00005C018BA83B7887F83BF0AC0C99908C001
:1001F0009FE088E10FB6F894A89581BD0FBE91BD30
:100200009F918F910F900FBE0F901F901895F894AB
:1002100080EC8BBF8CE085BF83E085BF7894089528
:100220000E9449000E9407010E945A00FDCFF894E5
:02023000FFCFFE
:0402320001020408B9
:00000001FF
