:100000000C94C4050C94E1050C94E1050C94E105F5
:100010000C94E1050C94E1050C94E1050C94E105C8
:100020000C94E1050C9400060C94E1050C94E10598
:100030000C94E1050C94E1050C94E1050C94E105A8
:100040000C94E1050C94E1050C94E1050C94E10598
:100050000C94E105C8C8C8C8C8C8C8C8C8C8C8C8BA
:10006000C8C8C8C8C8C8C80C0A07041E32466E0CE7
:100070000A07041E32466E0C0A07041E32466E0C36
:100080000A07041E32466E6E46321E04070A0C0131
:10009000020304050A807E121D272C3769807E1218
:1000A0001D272C3769807E14273B646E7D807E126D
:1000B0001D272C3769807E0C0A07041E32466E0C01
:1000C0000A07041E32466E0C0A07041E32466E6E84
:1000D00046321E04070A0C01020304050A807E0151
:1000E000020304050A807E01020304050A807E01E2
:1000F000020304050A807E01020304050A807E0CC7
:100100000A07041E32466E0C0A07041E32466E6E43
:1001100046321E04070A0C01020304050A807E12FF
:100120001D272C3769807E121D272C3769807E148D
:10013000273B646E7D807E121D272C3769807E0CE4
:100140000A07041E32466E6E46321E04070A0C0170
:10015000020304050A807E121D272C3769807E1257
:100160001D272C3769807E14273B646E7D807E12AC
:100170001D272C3769807E0C0A07041E32466E6EDE
:1001800046321E04070A0C01020304050A807E128F
:100190001D272C3769807E121D272C3769807E141D
:1001A000273B646E7D807E121D272C3769807E0C74
:1001B0000A07041E32466E0C0A07041E32466E0CF5
:1001C0000A07041E32466E6E46321E04070A0C0CE5
:1001D0000A07041E32466E0C0A07041E32466E0CD5
:1001E0000A07041E32466E0C0A07041E32466E6E63
:1001F00046321E04070A0C0C0A07041E32466E0122
:10020000020304050A807E01020304050A807E01C0
:10021000020304050A807E01020304050A807E0CA5
:100220000A07041E32466E0C0A07041E32466E6E22
:1002300046321E04070A0C01020304050A807E12DE
:100240001D272C3769807E121D272C3769807E146C
:10025000273B646E7D807E121D272C3769807E0CC3
:100260000A07041E32466E6E46321E04070A0C014F
:10027000020304050A807E121D272C3769807E1236
:100280001D272C3769807E14273B646E7D807E128B
:100290001D272C3769807E0C0A07041E32466E6EBD
:1002A00046321E04070A0C01020304050A807E017F
:1002B000020304050A807E01020304050A807E0110
:1002C000020304050A807E0C0A07041E32466E0CE7
:1002D0000A07041E32466E6E46321E04070A0C01DF
:1002E000020304050A807E121D272C3769807E12C6
:1002F0001D272C3769807E14273B646E7D807E121B
:100300001D272C3769807E0C0A07041E32466E6E4C
:1003100046321E04070A0C01020304050A807E12FD
:100320001D272C3769807E121D272C3769807E148B
:10033000273B646E7D807E121D272C3769807E0CE2
:100340000A07041E32466E6E46321E04070A0C016E
:10035000020304050A807E01020304050A807E016F
:10036000020304050A807E01020304050A807E0C54
:100370000A07041E32466E0C0A07041E32466E6ED1
:1003800046321E04070A0C01020304050A807E128D
:100390001D272C3769807E121D272C3769807E141B
:1003A000273B646E7D807E121D272C3769807E0C72
:1003B0000A07041E32466E6E46321E04070A0C01FE
:1003C000020304050A807E121D272C3769807E12E5
:1003D0001D272C3769807E14273B646E7D807E123A
:1003E0001D272C3769807E0C0A07041E32466E6E6C
:1003F00046321E04070A0C01020304050A807E012E
:10040000020304050A807E01020304050A807E01BE
:10041000020304050A807E0C0A07041E32466E0C95
:100420000A07041E32466E6E46321E04070A0C018D
:10043000020304050A807E121D272C3769807E1274
:100440001D272C3769807E14273B646E7D807E12C9
:100450001D272C3769807E0C0A07041E32466E6EFB
:1004600046321E04070A0C01020304050A807E12AC
:100470001D272C3769807E121D272C3769807E143A
:10048000273B646E7D807E121D272C3769807E0C91
:100490000A07041E32466E6E46321E04070A0C0C12
:1004A0000A07041E32466E0C0A07041E32466E0C02
:1004B0000A07041E32466E6E46321E04070A0C0CF2
:1004C0000A07041E32466E0C0A07041E32466E0CE2
:1004D0000A07041E32466E0C0A07041E32466E6E70
:1004E00046321E04070A0C0C0A07041E32466E0C24
:1004F0000A07041E32466E0C0A07041E32466E0CB2
:100500000A07041E32466E6E46321E04070A0C0CA1
:100510000A07041E32466E0C0A07041E32466E0C91
:100520000A07041E32466E0C0A07041E32466E6E1F
:1005300046321E04070A0C0C0A07041E32466E01DE
:10054000020304050A807E01020304050A807E017D
:10055000020304050A807E01020304050A807E016D
:10056000020304050A807E0C0A07041E32466E0C44
:100570000A07041E32466E0C0A07041E32466E0C31
:100580000A07041E32466E6E46321E04070A0C0C21
:100590000A07041E32466E0C0A07041E32466E0C11
:1005A0000A07041E32466E01020304050A807E011A
:1005B000020304050A807E01020304050A807E010D
:1005C000020304050A807E01020304050A807E0CF2
:1005D0000A07041E32466E0C0A07041E32466E0CD1
:1005E0000A07041E32466E0C0A07041E32466E6E5F
:1005F00046321E04070A0C0C0A07041E32466E0C13
:100600000A07041E32466E0C0A07041E32466E01AB
:10061000020304050A807E01020304050A807E01AC
:10062000020304050A807E01020304050A807E019C
:10063000020304050A807E0C0A07041E32466E0C73
:100640000A07041E32466E0C0A07041E32466E0C60
:100650000A07041E32466E6E46321E04070A0C0C50
:100660000A07041E32466E0C0A07041E32466E0C40
:100670000A07041E32466E01020304050A807E0149
:10068000020304050A807E01020304050A807E013C
:10069000020304050A807E01020304050A807E0C21
:1006A0000A07041E32466E0C0A07041E32466E0C00
:1006B0000A07041E32466E0C0A07041E32466E6E8E
:1006C00046321E04070A0C0C0A07041E32466E0C42
:1006D0000A07041E32466E0C0A07041E32466E01DB
:1006E000020304050A807E01020304050A807E01DC
:1006F000020304050A807E01020304050A807E01CC
:10070000020304050A807E0C0A07041E32466E0CA2
:100710000A07041E32466E0C0A07041E32466E0C8F
:100720000A07041E32466E6E46321E04070A0C0C7F
:100730000A07041E32466E0C0A07041E32466E0C6F
:100740000A07041E32466E0C0A07041E32466E0C5F
:100750000A07041E32466E0C0A07041E32466E6EED
:1007600046321E04070A0C0C0A07041E32466E0CA1
:100770000A07041E32466E0C0A07041E32466E0C2F
:100780000A07041E32466E6E46321E04070A0C7EAD
:100790007E807E807E7E7E7E7E807E7E807E7E7E71
:1007A000807E7E807E7E7E807E7E7E7F7E7E7F7F60
:1007B0007E7D807E7D7E7E7E7E7D807D7E817E7E56
:1007C0007E7D7E7F797D7D7E7E7E7D7E7E7E807E4F
:1007D0007D8081807E7E81807F807F7D7D7F837E26
:1007E0008082808084837F8081837F84817D8383F6
:1007F0008184837E7D80818081807E827D848081F2
:1008000081817C817F7B817A8178877E7F7E847AFB
:10081000827C7E857A847E7981817A857D81857BE3
:1008200081837A807F83887582827682827E807FD0
:1008300080837C7A7E81857781847A7D817C7E7CD1
:1008400084847480837A77887B7F7B817D798086BE
:1008500079817C837682877A7E827A7C8978897DA9
:10086000897880817F7F827884827D857784806F9C
:100870007270757C7B7C807C7F7E82827F888288A0
:100880008884898B88908F93898E8B908E89949899
:1008900095908F918D858D90918E8D8987868E8F85
:1008A0008A8684837F837A7A7F7A7C767A78737378
:1008B000726F76766F6F687071727977706D64633E
:1008C0006A69676669656268626360605E585F64F2
:1008D0005E5A5955555E615A565354555A5E5A568A
:1008E000585655534E565A545655545858565A5CA5
:1008F000575A5C625C5D6564676A6C6C6D706E749F
:1009000074737F7F8481807E8484848B8F908986BA
:10091000868C8B8B8C918C8A8C8F918D8A8E8F8913
:10092000868C8489898887847F7F7E7F7C767A7BAA
:100930007977736E6C6D70736E6A6B6466666468EB
:100940006A6B6A6A636065686866636866656B6936
:1009500069676F69686B6E7175757272726D746CB0
:1009600071787479787676767879777875817C7B0A
:100970007A777C78787D7A7782807C79777B8082C1
:100980007F7C7C7B7D808385818387878581878849
:10099000838B908B8B8E939695919991919097984C
:1009A0009AA09D99999794969C999A9995989593C0
:1009B00095908A8C93918B87888583828383827AB2
:1009C00077747074777270716B666365655E626070
:1009D0005D5D5E5E5A5C5B5D56595653565959597A
:1009E0005B5E615E5F69656061656A65696A6767CC
:1009F0006A6F7074767174787675767C7A787A7EA0
:100A00007C7B80847F7F7E85837C7F807A7D8483EE
:100A100081817E7D7C7C7D807C7B79777A7D7F8106
:100A20007E7C7472777E7C7D817E7A7C7B79797B1B
:100A30007C7E78787E77767F7E797A7B7A77767A15
:100A40007576797676757574717274706E72736975
:100A50006668686B686D6D67616264646364615F3A
:100A60005F625B60615E5858615F5B5F5D5D595FAF
:100A700062626668656264686A6A6F6F6F706B72E3
:100A8000737778797A7A797A7F8683817F82858590
:100A90008588858A88898E8C8B8E8E8A868A898ABB
:100AA0008E8E8A87898C8B8C898785888A88888DA9
:100AB0008F87888A898C91938F8B8E8C919298984E
:100AC0009192959293969293969995969B929597DB
:100AD00097959698979393929291959190908B8AEF
:100AE000898A86828583888B8284848180808385BD
:100AF0007F7E8284808083808182848886898485C9
:100B0000898B8D8F909291919098999CA4A0999C9B
:100B10009F9FA2A6AAABAEB2AFABB0B3B4B4B6B807
:100B2000B6B2B4B6B5B7B6BBBCB3B1B2AEAEB1B582
:100B3000B5B0AFAFAEA7A7AAA6A5A6A6A09E9E9C3D
:100B40009E9C9B9E9497959599979693908F919143
:100B500095949692908D919493959392938F91936F
:100B6000969695999C979596949394939498999525
:100B7000938F898B8C8A8A8989868284837F8589F1
:100B8000817F837E7C7C7B0011241FBECFE5D4E077
:100B9000DEBFCDBF10E0A0E6B0E0EEE1FDE002C0B8
:100BA00005900D92A036B107D9F720E0A0E6B0E09D
:100BB00001C01D92A436B207E1F70E94FA050C9419
:100BC0008D060C94000080E281BB81E88FBD89E036
:100BD0008EBD1BBC1ABC83B7816083BF12BE89B7B0
:100BE000816089BF81E090E0909361008093600014
:100BF000789408950E94E3058FEF87BBDB9AFDCFC1
:100C00001F920F920FB60F9211242F938F939F93E1
:100C1000AF93BF93EF93FF93DA9ACA9972C0809112
:100C2000600090916100019729F09093610080939A
:100C3000600067C081E090E0909361008093600065
:100C4000E0916200F0916300CF0101969093630000
:100C500080936200EC5AFF4FE491F0E0FBBDEABDE7
:100C60008091620090916300A0E0B0E081399A41E8
:100C7000A105B10524F01092630010926200E0918A
:100C80006200F0916300EC5AFF4F8081823318F4C8
:100C90008EEF88BB36C0E0916200F0916300EC5AA1
:100CA000FF4F8081843618F48CEF88BB2AC0E09116
:100CB0006200F0916300EC5AFF4F8081863918F48E
:100CC00088EF88BB1EC0E0916200F0916300EC5A8F
:100CD000FF4F8081883C18F480EF88BB12C0E09100
:100CE0006200F0916300EC5AFF4F80818A3F18F454
:100CF00080EE88BB06C0809162009091630080EC1A
:100D000088BBFF91EF91BF91AF919F918F912F91F0
:0E0D10000F900FBE0F901F901895F894FFCF14
:00000001FF
