:100000000C942A000C9447000C9447000C94470071
:100010000C9447000C9447000C9447000C94470044
:100020000C9447000C9447000C9447000C94470034
:100030000C9447000C9447000C946C000C944700FF
:100040000C9447000C9447000C9447000C94470014
:100050000C94470011241FBECFE5D4E0DEBFCDBF16
:1000600010E0A0E6B0E0EEE9F3E002C005900D92EA
:10007000A037B107D9F720E0A0E7B0E001C01D929A
:10008000A739B207E1F70E949C010C94CD010C94B2
:10009000000080E287B9369A3699FECF81E090E081
:1000A000909375008093740085B1089581E287B9BB
:1000B000369A3699FECF81E090E09093730080935A
:1000C000720085B1089580E287B987E886B98FEF1D
:1000D00087BB84BB81BB08951F920F920FB60F920E
:1000E00011242F938F939F93EF93FF938091780028
:1000F000863098F484B125B1E0917800F0E0EE0FFD
:10010000FF1FE758FF4F90E0922B918380838091EF
:1001100078008F5F80937800369AFF91EF919F91DE
:100120008F912F910F900FBE0F901F90189584B351
:10013000826C84BB86B1866086B986B1886886B9D0
:1001400080E287B97894369A0895CF92DF92EF9241
:10015000FF921F93CF93DF9380917800863009F050
:1001600069C0E5E8F0E011821082138212821582E4
:100170001482178216821186108613861286EF016A
:10018000F12C65E870E00F2EFBEAEF2EF02D2AC06F
:100190004D915D919E9D812D112486958695E82F28
:1001A000EE0F8E0F880FE92FE81BF0E0E759FF4FA5
:1001B00010811403F001159FF00D11242E0F3F1F25
:1001C0009F0DA617B70721F7F6013183208333234C
:1001D00024F42095309531832083F3942296F4E023
:1001E000FF1639F06E0128813981A9E7B0E090E06F
:1001F000CFCF80918500909186008033954714F091
:10020000A99A01C0A99880918700909188008637AB
:100210009F4214F0AE9A01C0AE98809189009091EF
:100220008A008839984514F0AF9A01C0AF981092AF
:100230007800369ADF91CF911F91FF90EF90DF9079
:10024000CF9008950E94490080939200909193006E
:10025000890F8093930080917600909177000196AA
:1002600090937700809376000E94560080939400CC
:1002700090919500282F290F20939500E091700010
:10028000F09171003196F0937100E09370008091CD
:10029000740090917500019709F04DC08091720033
:1002A00090917300019709F046C08091930090E00F
:1002B00060917600709177000E94A50149E8649FE3
:1002C000312D112436953695369530939100822F35
:1002D00090E0BF010E94A501649F612D11246695E5
:1002E0006695669560939600E32FF0E0EE0FFF1F92
:1002F000E05AFF4F8081809588BBE0919600F0E046
:10030000EE0FFF1FE05AFF4F8081809582BB109255
:100310007500109274001092730010927200109287
:100320009300109277001092760010929500109230
:1003300071001092700008950E9463000E9497005F
:100340000E9422010E94A500FBCF97FB072E16F406
:10035000009407D077FD09D00E94B90107FC05D0B1
:100360003EF4909581959F4F0895709561957F4FCC
:100370000895AA1BBB1B51E107C0AA1FBB1FA617EC
:10038000B70710F0A61BB70B881F991F5A95A9F73E
:0E03900080959095BC01CD010895F894FFCFA3
:10039E00FF7F3F1F0F070301000A04FBF7FC050058
:00000001FF
